{"abi":[{"type":"constructor","inputs":[{"name":"initialOwner","type":"address","internalType":"address"}],"stateMutability":"payable"},{"type":"function","name":"collectERC20","inputs":[{"name":"tokenAddress","type":"address","internalType":"address"},{"name":"recipient","type":"address","internalType":"address"},{"name":"senders","type":"address[]","internalType":"address[]"},{"name":"amounts","type":"uint256[]","internalType":"uint256[]"}],"outputs":[],"stateMutability":"nonpayable"},{"type":"function","name":"disperseERC20","inputs":[{"name":"tokenAddress","type":"address","internalType":"address"},{"name":"recipients","type":"address[]","internalType":"address[]"},{"name":"amounts","type":"uint256[]","internalType":"uint256[]"}],"outputs":[],"stateMutability":"nonpayable"},{"type":"function","name":"disperseEth","inputs":[{"name":"recipients","type":"address[]","internalType":"address payable[]"},{"name":"amounts","type":"uint256[]","internalType":"uint256[]"}],"outputs":[],"stateMutability":"payable"},{"type":"function","name":"owner","inputs":[],"outputs":[{"name":"","type":"address","internalType":"address"}],"stateMutability":"view"},{"type":"function","name":"renounceOwnership","inputs":[],"outputs":[],"stateMutability":"nonpayable"},{"type":"function","name":"transferOwnership","inputs":[{"name":"newOwner","type":"address","internalType":"address"}],"outputs":[],"stateMutability":"nonpayable"},{"type":"event","name":"OwnershipTransferred","inputs":[{"name":"previousOwner","type":"address","indexed":true,"internalType":"address"},{"name":"newOwner","type":"address","indexed":true,"internalType":"address"}],"anonymous":false},{"type":"error","name":"AddressEmptyCode","inputs":[{"name":"target","type":"address","internalType":"address"}]},{"type":"error","name":"AddressInsufficientBalance","inputs":[{"name":"account","type":"address","internalType":"address"}]},{"type":"error","name":"FailedInnerCall","inputs":[]},{"type":"error","name":"OwnableInvalidOwner","inputs":[{"name":"owner","type":"address","internalType":"address"}]},{"type":"error","name":"OwnableUnauthorizedAccount","inputs":[{"name":"account","type":"address","internalType":"address"}]},{"type":"error","name":"SafeERC20FailedOperation","inputs":[{"name":"token","type":"address","internalType":"address"}]}],"bytecode":{"object":"0x608060405260405161094c38038061094c83398101604081905260209160ab565b806001600160a01b038116604e57604051631e4fbdf760e01b81526000600482015260240160405180910390fd5b605581605b565b505060d9565b600080546001600160a01b038381166001600160a01b0319831681178455604051919092169283917f8be0079c531659141344cd1fd0a4f28419497f9722a3daafe3b4186f6b6457e09190a35050565b60006020828403121560bc57600080fd5b81516001600160a01b038116811460d257600080fd5b9392505050565b610864806100e86000396000f3fe6080604052600436106100555760003560e01c80631fb777b91461005a578063715018a61461006f5780638da5cb5b1461008457806394a97f12146100b05780639d11936c146100d0578063f2fde38b146100f0575b600080fd5b61006d6100683660046105e1565b610110565b005b34801561007b57600080fd5b5061006d6101e0565b34801561009057600080fd5b50600054604080516001600160a01b039092168252519081900360200190f35b3480156100bc57600080fd5b5061006d6100cb366004610667565b6101f4565b3480156100dc57600080fd5b5061006d6100eb3660046106ef565b61026f565b3480156100fc57600080fd5b5061006d61010b366004610789565b6102d2565b3460005b848110156101d8576000848483818110610130576101306107a6565b905060200201359050600087878481811061014d5761014d6107a6565b90506020020160208101906101629190610789565b6001600160a01b03168260405160006040518083038185875af1925050503d80600081146101ac576040519150601f19603f3d011682016040523d82523d6000602084013e6101b1565b606091505b50509050806101bf57600080fd5b6101c982856107bc565b93505050806001019050610114565b505050505050565b6101e8610315565b6101f26000610342565b565b8460005b848110156102665761025e33878784818110610216576102166107a6565b905060200201602081019061022b9190610789565b86868581811061023d5761023d6107a6565b90506020020135856001600160a01b0316610392909392919063ffffffff16565b6001016101f8565b50505050505050565b610277610315565b8560005b848110156102c8576102c0868683818110610298576102986107a6565b90506020020160208101906102ad9190610789565b8886868581811061023d5761023d6107a6565b60010161027b565b5050505050505050565b6102da610315565b6001600160a01b03811661030957604051631e4fbdf760e01b8152600060048201526024015b60405180910390fd5b61031281610342565b50565b6000546001600160a01b031633146101f25760405163118cdaa760e01b8152336004820152602401610300565b600080546001600160a01b038381166001600160a01b0319831681178455604051919092169283917f8be0079c531659141344cd1fd0a4f28419497f9722a3daafe3b4186f6b6457e09190a35050565b604080516001600160a01b0385811660248301528416604482015260648082018490528251808303909101815260849091019091526020810180516001600160e01b03166323b872dd60e01b1790526103ec9085906103f2565b50505050565b60006104076001600160a01b0384168361045a565b9050805160001415801561042c57508080602001905181019061042a91906107dd565b155b1561045557604051635274afe760e01b81526001600160a01b0384166004820152602401610300565b505050565b606061046883836000610471565b90505b92915050565b6060814710156104965760405163cd78605960e01b8152306004820152602401610300565b600080856001600160a01b031684866040516104b291906107ff565b60006040518083038185875af1925050503d80600081146104ef576040519150601f19603f3d011682016040523d82523d6000602084013e6104f4565b606091505b5091509150610504868383610510565b925050505b9392505050565b606082610525576105208261056c565b610509565b815115801561053c57506001600160a01b0384163b155b1561056557604051639996b31560e01b81526001600160a01b0385166004820152602401610300565b5080610509565b80511561057c5780518082602001fd5b604051630a12f52160e11b815260040160405180910390fd5b60008083601f8401126105a757600080fd5b50813567ffffffffffffffff8111156105bf57600080fd5b6020830191508360208260051b85010111156105da57600080fd5b9250929050565b600080600080604085870312156105f757600080fd5b843567ffffffffffffffff81111561060e57600080fd5b61061a87828801610595565b909550935050602085013567ffffffffffffffff81111561063a57600080fd5b61064687828801610595565b95989497509550505050565b6001600160a01b038116811461031257600080fd5b60008060008060006060868803121561067f57600080fd5b853561068a81610652565b9450602086013567ffffffffffffffff8111156106a657600080fd5b6106b288828901610595565b909550935050604086013567ffffffffffffffff8111156106d257600080fd5b6106de88828901610595565b969995985093965092949392505050565b6000806000806000806080878903121561070857600080fd5b863561071381610652565b9550602087013561072381610652565b9450604087013567ffffffffffffffff81111561073f57600080fd5b61074b89828a01610595565b909550935050606087013567ffffffffffffffff81111561076b57600080fd5b61077789828a01610595565b979a9699509497509295939492505050565b60006020828403121561079b57600080fd5b813561050981610652565b634e487b7160e01b600052603260045260246000fd5b8181038181111561046b57634e487b7160e01b600052601160045260246000fd5b6000602082840312156107ef57600080fd5b8151801515811461050957600080fd5b6000825160005b818110156108205760208186018101518583015201610806565b50600092019182525091905056fea26469706673582212207275632b6c938df420a522a44ecab8404d476e3288bb0feb6bc6ef60c03b5f2d64736f6c634300081a0033","linkReferences":{}},"methodIdentifiers":{"collectERC20(address,address,address[],uint256[])":"9d11936c","disperseERC20(address,address[],uint256[])":"94a97f12","disperseEth(address[],uint256[])":"1fb777b9","owner()":"8da5cb5b","renounceOwnership()":"715018a6","transferOwnership(address)":"f2fde38b"},"id":29}