{"abi":[{"type":"constructor","inputs":[{"name":"initialOwner","type":"address","internalType":"address"}],"stateMutability":"payable"},{"type":"function","name":"collectERC20","inputs":[{"name":"tokenAddress","type":"address","internalType":"address"},{"name":"recipient","type":"address","internalType":"address"},{"name":"senders","type":"address[]","internalType":"address[]"},{"name":"amounts","type":"uint256[]","internalType":"uint256[]"}],"outputs":[],"stateMutability":"nonpayable"},{"type":"function","name":"disperseERC20","inputs":[{"name":"spender","type":"address","internalType":"address"},{"name":"tokenAddress","type":"address","internalType":"address"},{"name":"recipients","type":"address[]","internalType":"address[]"},{"name":"amounts","type":"uint256[]","internalType":"uint256[]"}],"outputs":[],"stateMutability":"nonpayable"},{"type":"function","name":"disperseEth","inputs":[{"name":"recipients","type":"address[]","internalType":"address[]"},{"name":"amounts","type":"uint256[]","internalType":"uint256[]"}],"outputs":[],"stateMutability":"payable"},{"type":"function","name":"owner","inputs":[],"outputs":[{"name":"","type":"address","internalType":"address"}],"stateMutability":"view"},{"type":"function","name":"renounceOwnership","inputs":[],"outputs":[],"stateMutability":"nonpayable"},{"type":"function","name":"transferOwnership","inputs":[{"name":"newOwner","type":"address","internalType":"address"}],"outputs":[],"stateMutability":"nonpayable"},{"type":"event","name":"OwnershipTransferred","inputs":[{"name":"previousOwner","type":"address","indexed":true,"internalType":"address"},{"name":"newOwner","type":"address","indexed":true,"internalType":"address"}],"anonymous":false},{"type":"error","name":"AddressEmptyCode","inputs":[{"name":"target","type":"address","internalType":"address"}]},{"type":"error","name":"AddressInsufficientBalance","inputs":[{"name":"account","type":"address","internalType":"address"}]},{"type":"error","name":"FailedInnerCall","inputs":[]},{"type":"error","name":"OwnableInvalidOwner","inputs":[{"name":"owner","type":"address","internalType":"address"}]},{"type":"error","name":"OwnableUnauthorizedAccount","inputs":[{"name":"account","type":"address","internalType":"address"}]},{"type":"error","name":"SafeERC20FailedOperation","inputs":[{"name":"token","type":"address","internalType":"address"}]}],"bytecode":{"object":"0x60806040526040516108ed3803806108ed83398101604081905260209160ab565b806001600160a01b038116604e57604051631e4fbdf760e01b81526000600482015260240160405180910390fd5b605581605b565b505060d9565b600080546001600160a01b038381166001600160a01b0319831681178455604051919092169283917f8be0079c531659141344cd1fd0a4f28419497f9722a3daafe3b4186f6b6457e09190a35050565b60006020828403121560bc57600080fd5b81516001600160a01b038116811460d257600080fd5b9392505050565b610805806100e86000396000f3fe6080604052600436106100555760003560e01c80631fb777b91461005a578063715018a61461006f5780638021c23d146100845780638da5cb5b146100a45780639d11936c146100d0578063f2fde38b146100f0575b600080fd5b61006d610068366004610609565b610110565b005b34801561007b57600080fd5b5061006d6101ee565b34801561009057600080fd5b5061006d61009f366004610696565b610202565b3480156100b057600080fd5b50600054604080516001600160a01b039092168252519081900360200190f35b3480156100dc57600080fd5b5061006d6100eb366004610696565b610294565b3480156100fc57600080fd5b5061006d61010b36600461072c565b6102fa565b8281811461011d57600080fd5b3460005b828110156101e557600085858381811061013d5761013d610747565b905060200201359050600088888481811061015a5761015a610747565b905060200201602081019061016f919061072c565b6001600160a01b03168260405160006040518083038185875af1925050503d80600081146101b9576040519150601f19603f3d011682016040523d82523d6000602084013e6101be565b606091505b50509050806101cc57600080fd5b6101d6828561075d565b93505050806001019050610121565b50505050505050565b6101f661033d565b610200600061036a565b565b61020a61033d565b8281811461021757600080fd5b8560005b82811015610289576102818988888481811061023957610239610747565b905060200201602081019061024e919061072c565b87878581811061026057610260610747565b90506020020135856001600160a01b03166103ba909392919063ffffffff16565b60010161021b565b505050505050505050565b61029c61033d565b828181146102a957600080fd5b8660005b82811015610289576102f28787838181106102ca576102ca610747565b90506020020160208101906102df919061072c565b8987878581811061026057610260610747565b6001016102ad565b61030261033d565b6001600160a01b03811661033157604051631e4fbdf760e01b8152600060048201526024015b60405180910390fd5b61033a8161036a565b50565b6000546001600160a01b031633146102005760405163118cdaa760e01b8152336004820152602401610328565b600080546001600160a01b038381166001600160a01b0319831681178455604051919092169283917f8be0079c531659141344cd1fd0a4f28419497f9722a3daafe3b4186f6b6457e09190a35050565b604080516001600160a01b0385811660248301528416604482015260648082018490528251808303909101815260849091019091526020810180516001600160e01b03166323b872dd60e01b17905261041490859061041a565b50505050565b600061042f6001600160a01b03841683610482565b90508051600014158015610454575080806020019051810190610452919061077e565b155b1561047d57604051635274afe760e01b81526001600160a01b0384166004820152602401610328565b505050565b606061049083836000610499565b90505b92915050565b6060814710156104be5760405163cd78605960e01b8152306004820152602401610328565b600080856001600160a01b031684866040516104da91906107a0565b60006040518083038185875af1925050503d8060008114610517576040519150601f19603f3d011682016040523d82523d6000602084013e61051c565b606091505b509150915061052c868383610538565b925050505b9392505050565b60608261054d5761054882610594565b610531565b815115801561056457506001600160a01b0384163b155b1561058d57604051639996b31560e01b81526001600160a01b0385166004820152602401610328565b5080610531565b8051156105a45780518082602001fd5b604051630a12f52160e11b815260040160405180910390fd5b60008083601f8401126105cf57600080fd5b50813567ffffffffffffffff8111156105e757600080fd5b6020830191508360208260051b850101111561060257600080fd5b9250929050565b6000806000806040858703121561061f57600080fd5b843567ffffffffffffffff81111561063657600080fd5b610642878288016105bd565b909550935050602085013567ffffffffffffffff81111561066257600080fd5b61066e878288016105bd565b95989497509550505050565b80356001600160a01b038116811461069157600080fd5b919050565b600080600080600080608087890312156106af57600080fd5b6106b88761067a565b95506106c66020880161067a565b9450604087013567ffffffffffffffff8111156106e257600080fd5b6106ee89828a016105bd565b909550935050606087013567ffffffffffffffff81111561070e57600080fd5b61071a89828a016105bd565b979a9699509497509295939492505050565b60006020828403121561073e57600080fd5b6104908261067a565b634e487b7160e01b600052603260045260246000fd5b8181038181111561049357634e487b7160e01b600052601160045260246000fd5b60006020828403121561079057600080fd5b8151801515811461053157600080fd5b6000825160005b818110156107c157602081860181015185830152016107a7565b50600092019182525091905056fea264697066735822122056f0814c7392f8184fa86145434be7eb7751ab92d3f8349fa0889787515494b964736f6c634300081a0033","linkReferences":{}},"methodIdentifiers":{"collectERC20(address,address,address[],uint256[])":"9d11936c","disperseERC20(address,address,address[],uint256[])":"8021c23d","disperseEth(address[],uint256[])":"1fb777b9","owner()":"8da5cb5b","renounceOwnership()":"715018a6","transferOwnership(address)":"f2fde38b"},"id":33}