{"abi":[{"type":"constructor","inputs":[{"name":"initialOwner","type":"address","internalType":"address"}],"stateMutability":"payable"},{"type":"function","name":"collectERC20","inputs":[{"name":"tokenAddress","type":"address","internalType":"address"},{"name":"recipient","type":"address","internalType":"address"},{"name":"senders","type":"address[]","internalType":"address[]"},{"name":"amounts","type":"uint256[]","internalType":"uint256[]"}],"outputs":[],"stateMutability":"nonpayable"},{"type":"function","name":"disperseERC20","inputs":[{"name":"spender","type":"address","internalType":"address"},{"name":"tokenAddress","type":"address","internalType":"address"},{"name":"recipients","type":"address[]","internalType":"address[]"},{"name":"amounts","type":"uint256[]","internalType":"uint256[]"}],"outputs":[],"stateMutability":"nonpayable"},{"type":"function","name":"disperseEth","inputs":[{"name":"recipients","type":"address[]","internalType":"address payable[]"},{"name":"amounts","type":"uint256[]","internalType":"uint256[]"}],"outputs":[],"stateMutability":"payable"},{"type":"function","name":"owner","inputs":[],"outputs":[{"name":"","type":"address","internalType":"address"}],"stateMutability":"view"},{"type":"function","name":"renounceOwnership","inputs":[],"outputs":[],"stateMutability":"nonpayable"},{"type":"function","name":"transferOwnership","inputs":[{"name":"newOwner","type":"address","internalType":"address"}],"outputs":[],"stateMutability":"nonpayable"},{"type":"event","name":"OwnershipTransferred","inputs":[{"name":"previousOwner","type":"address","indexed":true,"internalType":"address"},{"name":"newOwner","type":"address","indexed":true,"internalType":"address"}],"anonymous":false},{"type":"error","name":"AddressEmptyCode","inputs":[{"name":"target","type":"address","internalType":"address"}]},{"type":"error","name":"AddressInsufficientBalance","inputs":[{"name":"account","type":"address","internalType":"address"}]},{"type":"error","name":"FailedInnerCall","inputs":[]},{"type":"error","name":"OwnableInvalidOwner","inputs":[{"name":"owner","type":"address","internalType":"address"}]},{"type":"error","name":"OwnableUnauthorizedAccount","inputs":[{"name":"account","type":"address","internalType":"address"}]},{"type":"error","name":"SafeERC20FailedOperation","inputs":[{"name":"token","type":"address","internalType":"address"}]}],"bytecode":{"object":"0x60806040526040516108c33803806108c383398101604081905260209160ab565b806001600160a01b038116604e57604051631e4fbdf760e01b81526000600482015260240160405180910390fd5b605581605b565b505060d9565b600080546001600160a01b038381166001600160a01b0319831681178455604051919092169283917f8be0079c531659141344cd1fd0a4f28419497f9722a3daafe3b4186f6b6457e09190a35050565b60006020828403121560bc57600080fd5b81516001600160a01b038116811460d257600080fd5b9392505050565b6107db806100e86000396000f3fe6080604052600436106100555760003560e01c80631fb777b91461005a578063715018a61461006f5780638021c23d146100845780638da5cb5b146100a45780639d11936c146100d0578063f2fde38b146100f0575b600080fd5b61006d6100683660046105e0565b610110565b005b34801561007b57600080fd5b5061006d6101e0565b34801561009057600080fd5b5061006d61009f366004610666565b6101f4565b3480156100b057600080fd5b50600054604080516001600160a01b039092168252519081900360200190f35b3480156100dc57600080fd5b5061006d6100eb366004610666565b610278565b3480156100fc57600080fd5b5061006d61010b366004610700565b6102d1565b3460005b848110156101d85760008484838181106101305761013061071d565b905060200201359050600087878481811061014d5761014d61071d565b90506020020160208101906101629190610700565b6001600160a01b03168260405160006040518083038185875af1925050503d80600081146101ac576040519150601f19603f3d011682016040523d82523d6000602084013e6101b1565b606091505b50509050806101bf57600080fd5b6101c98285610733565b93505050806001019050610114565b505050505050565b6101e8610314565b6101f26000610341565b565b6101fc610314565b8460005b8481101561026e576102668887878481811061021e5761021e61071d565b90506020020160208101906102339190610700565b8686858181106102455761024561071d565b90506020020135856001600160a01b0316610391909392919063ffffffff16565b600101610200565b5050505050505050565b610280610314565b8560005b8481101561026e576102c98686838181106102a1576102a161071d565b90506020020160208101906102b69190610700565b888686858181106102455761024561071d565b600101610284565b6102d9610314565b6001600160a01b03811661030857604051631e4fbdf760e01b8152600060048201526024015b60405180910390fd5b61031181610341565b50565b6000546001600160a01b031633146101f25760405163118cdaa760e01b81523360048201526024016102ff565b600080546001600160a01b038381166001600160a01b0319831681178455604051919092169283917f8be0079c531659141344cd1fd0a4f28419497f9722a3daafe3b4186f6b6457e09190a35050565b604080516001600160a01b0385811660248301528416604482015260648082018490528251808303909101815260849091019091526020810180516001600160e01b03166323b872dd60e01b1790526103eb9085906103f1565b50505050565b60006104066001600160a01b03841683610459565b9050805160001415801561042b5750808060200190518101906104299190610754565b155b1561045457604051635274afe760e01b81526001600160a01b03841660048201526024016102ff565b505050565b606061046783836000610470565b90505b92915050565b6060814710156104955760405163cd78605960e01b81523060048201526024016102ff565b600080856001600160a01b031684866040516104b19190610776565b60006040518083038185875af1925050503d80600081146104ee576040519150601f19603f3d011682016040523d82523d6000602084013e6104f3565b606091505b509150915061050386838361050f565b925050505b9392505050565b6060826105245761051f8261056b565b610508565b815115801561053b57506001600160a01b0384163b155b1561056457604051639996b31560e01b81526001600160a01b03851660048201526024016102ff565b5080610508565b80511561057b5780518082602001fd5b604051630a12f52160e11b815260040160405180910390fd5b60008083601f8401126105a657600080fd5b50813567ffffffffffffffff8111156105be57600080fd5b6020830191508360208260051b85010111156105d957600080fd5b9250929050565b600080600080604085870312156105f657600080fd5b843567ffffffffffffffff81111561060d57600080fd5b61061987828801610594565b909550935050602085013567ffffffffffffffff81111561063957600080fd5b61064587828801610594565b95989497509550505050565b6001600160a01b038116811461031157600080fd5b6000806000806000806080878903121561067f57600080fd5b863561068a81610651565b9550602087013561069a81610651565b9450604087013567ffffffffffffffff8111156106b657600080fd5b6106c289828a01610594565b909550935050606087013567ffffffffffffffff8111156106e257600080fd5b6106ee89828a01610594565b979a9699509497509295939492505050565b60006020828403121561071257600080fd5b813561050881610651565b634e487b7160e01b600052603260045260246000fd5b8181038181111561046a57634e487b7160e01b600052601160045260246000fd5b60006020828403121561076657600080fd5b8151801515811461050857600080fd5b6000825160005b81811015610797576020818601810151858301520161077d565b50600092019182525091905056fea2646970667358221220fb431d151ac06a671d1b9daadb0f5b5424f9b5ce2b5076cbcdb4fd33febee39364736f6c634300081a0033","linkReferences":{}},"methodIdentifiers":{"collectERC20(address,address,address[],uint256[])":"9d11936c","disperseERC20(address,address,address[],uint256[])":"8021c23d","disperseEth(address[],uint256[])":"1fb777b9","owner()":"8da5cb5b","renounceOwnership()":"715018a6","transferOwnership(address)":"f2fde38b"},"id":29}